:20000000003A01202955020039FB021039FB021039FB021039FB021039FB021039FB021061
:1C00200039FB021039FB021039FB021039FB021039FB021039FB021011FB021002
:200040002DE9F04F04680E46ADF5FE7D1F461546ADF1580D88909E9900688B912FF04CFD70
:200060008A974FF0000B8995014690962046091981428C9140F204855B46869359469391EA
:200080008791AE4A919292924FF0FF368396869981910F468DF8107282970778252F08BF3C
:2000A0000A1C15D0002F00F0EB84DDF82082D8F800108A9A0078491CC8F800108999904786
:2000C000D8F8000007780BF1010B252FEAD1819A88990868909E0B46401C186011E042F098
:2000E00010020AE042F0010207E042F0020204E042F0080201E042F0040281920868401C9A
:200100000860086800782038F5D0C01EF0D00838EBD0801EE6D0C01EE1D01C462068017893
:200120002A2917D0302901AA0ADB3A2908DA0146401C2060097802F8011B01783029F4DAFD
:20014000879810709DF80470B7B101A827F054F9829011E0F61C26F00306361D56F8040C9D
:20016000002803D542F00102819240428290314620689091401C2060206801782E2929D155
:20018000401C206001782A2919D0302901AA0ADB3A2908DA0146401C2060097802F8011BE6
:2001A00001783029F4DA879810709DF80400002808BF87980DD001A827F01EF909E0216833
:2001C000F61C26F00306361D491C909656F8040C2160839020460168819D08784C383BD022
:2001E0001C3818D0801E32D0801E04D0083829D0801F22D039E0491C2246087811606C287C
:200200001CBF45F0400045F040050FD145F4807045F4807524E022461168491C0878682883
:20022000116005D045F0200045F0200581901CE045F4007045F4007512E045F4805045F431
:2002400080550DE045F4005045F4005508E045F4006045F4006503E045F0800045F0800554
:20026000819020460168491C01602246097810686E298DF8101200F10100106000F0C383A1
:20028000732900F01F830DF20120829C859020214FF4FF7201A820F0CEF8859887990DEB34
:2002A000040707F1040A01700D468D950DF5007C8E950F468F959DF81032CDF814C218465D
:2002C000642814DC642821D0253800F0E8821C3800F04D81001F022840F24981133815D0E7
:2002E000093800F04481801E00F02882F3E16538022840F23C81001F08D0801F012805D9A9
:20030000801F18BFB0F1030040F0E5818399002904D4819820F01000819002E001208390B0
:200320000146B3F1580007D0173809D0401E03D0083818BF0A2204D1102202E0FFFF0F0011
:200340000822702B00F0B280819843F66075B946B8462840203800F08B8020387AD0C0383D
:2003600061D0B0F5807047D0B0F5C06036D0B0F5006025D0B0F5805013D0B3F1580000F097
:2003800095800C3800F08980401F00F08680801F00F08C80801F00F08980C01E00F08680AF
:2003A0008EE0B3F1580000F081800C3875D0401F73D0801F7AD0801F78D0C01E76D07FE064
:2003C000B3F1580072D00C3867D0401F65D0801F6CD0801F6AD0C01E68D071E0B3F15800B9
:2003E0002FD00C382DD0401F2BD0801F29D0801F27D0C01E25D063E0B3F158000AD00C3805
:200400004BD0401F49D0801F04D0801F18BFB0F1030055D1F61C26F00306361D16F8048C74
:200420004FF000094BE0B3F158000AD00C3808D0401F06D0801F04D0801F18BFB0F1030095
:200440003ED1F61D26F007060836A6F1080090E8000334E0B3F1580028D00C381DD0401F67
:200460001BD0801F22D0801F20D0C01E28D11DE0B3F158000AD00C380FD0401F0DD0801FC9
:2004800004D0801F18BFB0F1030019D1F61C26F00306361D36F8044C0EE0F61C26F0030663
:2004A000361D56F8044C4FEAE47907E0F61C26F00306361D56F8044C4FF00009A046909658
:2004C000CD1744464846214350EA050608BF002903D181990D09C0F04781642B18BF692B11
:2004E00008D1002806DA012664424FF000018E9661EB000085A900910146204619F0B2F87F
:200500008399401C81422BDA9DF81032782B03D0582B18BF702B11D1819908090FD3702BCF
:2005200008BF7823859803708598401E85903021017085989DF81032401E859081996F2B5C
:2005400040F012810809C0F00F8185984278302A00F00A81302101708598401E8590B8E0F1
:20056000859930220A708599491E8591C8E7F61D184626F00706A0F1610108369096083E16
:2005800096E800031A2938BF20383C46984208BF012447F6F0724D4647F6F07000EA1940EE
:2005A000824212D1919E29464FF0000E0A0041464EEA020241EA0E0116404FF0FF3202EAF0
:2005C000010208BF002A40F09E8047F6F072290082425BD1929E0022404694464FF0FF35FC
:2005E0000A434CEA00002840164008BF00284DD1B2A20CCA494640461EF009FA21D3002C3D
:2006000014BF4621662185988DF80012002CA0F10100859014BF4E216E2101708599002C06
:20062000A0F10100A1F10101859114BF49216921017085992B26491E8591032700F8016CCB
:200640008AE7002C14BF4621662185988DF80012002CA0F10100859014BF4E216E21017073
:200660008599002CA0F10100A1F10101859114BF4921692101708599491E85912D2700F8D5
:20068000017C8199DDF814C2042768E04FF00046384600250E4000EA05000EBF002889F0D2
:2006A00000490127B3F1410026D0001F1CD0401E13D0401E07D01A381ED0001F14D0401ECC
:2006C0000BD0401E07D149EC108B81A885A90AF0DBF89DF81032819946E049EC108B81A805
:2006E00085A925F0DEF905E049EC108B81A885A90FF0D8FA819935E049EC108B81A885A9AD
:2007000005F0D8FEE5E7002C14BF4E206E2061468DF80002491E002C859114BF41206120BB
:2007200008708598002CA1F10101A0F10100859014BF4E206E20022708700DE7F61C26F031
:2007400003063C46361D16F8045C909605B901248F9481998DF8005221F002018191604664
:20076000401E85909DF810328598752B00F1010229D06F2B27D0782B25D0582B23D0702B4B
:2007800021D01FB17F1E1ED101238E9301F002038E9F8D931FB98B0808D32B2100E02D21C4
:2007A000017085988199521E401E85908D9E374309D1C80807D3859820210170859881997F
:2007C000521E401E859048080DD2859C8298ADEB040101F20121884205DB01A8241A5444F1
:2007E000A4F5FE7400E001AC1146939A20464FF4FF732DF0C3FB8F9F859027B1879901703B
:200800008598401C8590824509D3AAEB00022021401E521C1FF00FFE87988AF8000081982D
:2008200040092ED301A8A04232D001A8221A302101A81FF000FE8D9F8E9E374305D1819834
:20084000C00838BF0DF1050007D3207830218DF804000DF1060004F8011B9DF81022782A05
:2008600003D0582A18BF702A02D18199090903D2612A18BF412A0BD16178017030276770BD
:2008800006E001A8241A2021224601A81FF0D3FD01A82FF031F98F9F0246D21904E07BA008
:2008A0000188012201AF39808B9B899901A89847B0F1FF3F00F09F808344D8E000000000E6
:2008C00000000000839CE80948D2DDF82492F61C26F00306361D56F8048C9096B8F1000F23
:2008E0003AD0829F002C06D440462FF005F9A04288BF201C02D840462FF0FEF80446BC4202
:20090000A8BF071CBB44A7420ADD680808D23E1B002E05DD8A9A202049469047761EF9D1A3
:20092000002C07DD26468A9A18F8010B49469047761EF8D18198A74240F399804008C0F0F2
:2009400096803F1B002F40F392808A9A2020494690477F1EF9D18AE0494650E0DDF82482DE
:20096000F61C26F00306361D56F8047C9096002F44D0002C06D438462EF009FBA04288BFED
:20098000839C03D838462EF002FB0446829EB442A8BF261CB344A6420BDD8198400808D2B9
:2009A000351B002D05DD8A9A2020414690476D1EF9D1002C0BDD2546BF1E37F8021FC8B29B
:2009C000884214D18A9A414690476D1EF5D18198A6424CDD40084AD3361B002E47DD3746E6
:2009E0008A9A2020414690477F1EF9D13FE02EF0A3FE582101604FF0FF3B41E041468A9AD1
:200A00009398904733E043F660702840203825D0E0380ED0B0F5807017D0B0F5C06008D0F4
:200A2000F61C26F00306361D56F8040CC0F800B01CE0F61C26F00306361D56F8042C5946CF
:200A40005846C91782E8030010E0F61C26F00306361D56F8040C80F800B007E0F61C26F0A2
:200A60000306361D56F8040CA0F800B09096BBF1FF3F05D088988C99006881423FF604AB3B
:200A80007FB0584616B0BDE8F08FC0462500704752EC111B2DE9F04F58EC107B1346104680
:200AA000ADF13C0D3E4606934246089020F00045079123F0004322F0004751EA03046AA327
:200AC0000D9300F088806A4C944208BF002E00F0828063A3674A0C93BA4208DBBA4200D109
:200AE0002EB9AA4203DB9446AC4516D1A9B14146984698E80C0030460AF075F989468246D3
:200B00000899079898E80C000AF06DF90B460246494650460AF067F93BE0594AB8F1000F1B
:200B20004FF000090E9225D5534AAA4220DDAC4220DC524B2A15AB42A2F2FF320BDD0029C4
:200B40005CD1C2F1140245FA02F303FA02F2954210D11A4607E0C2F1340321FA03F202FA85
:200B600003F3994206D102F00109C9F1020901E04FF00209002941D16246AA4228D0AC422C
:200B80000DD1002807D50D9803C84346324610F077F8884606464146304600F027BCB0F108
:200BA000804F05D1414630460B46024600F008BC0E99814222D1B8F1000F1FD4434632463D
:200BC00043EC102B0EF0ACF851EC100B00F00EBC391B0E4302D10D9C00F006BCBC4205DD44
:200BE000002805D5014681F0004105E0002802D50C98014631E001460798F7E328F00043FF
:200C0000B2460193F6B96246BA4203D0002F18BFBC4217D1002806D50D9803C8524610F02B
:200C20002FF806460B46B8F1000F08D53F1B59EA07000DD0B9F1010F08BF83F00043194644
:200C40003046A6E74FEAD876761E59EA060319D12EF072FD2122CCA102600C46C4E3C046A2
:200C60000000000000000000000000000000F03F0000F03F0000F07F0000404300004041A3
:200C80000000E03FA9F101010E4314BF0D99C0A106C9C34E0991AE420A92C0F26581B7F524
:200CA000801FA8BF002509DA0199BBA20CCA504613F052FD6FF034050F468246B94905EBCA
:200CC0002755C7F313002746A5F2FF35814247EA000707DCB4498142DABF6D1CA7F58017A0
:200CE000012400DC0024B14800EBC40090E80C0001973946009050460AF075F802460D9812
:200D00000B4603C80FF0BCFF0290009890E80C008846394650460AF061F8029A89468346E5
:200D2000434613F019FD03900C9E04910846059096E803007B1043F0005101EB844101F525
:200D400000210C460599064600203246234613F003FD0B460246494658460AF03FF8834672
:200D6000009890E80C008946214630460AF036F80B460246394650460AF030F8059B0022F1
:200D800013F0EAFC0B460246494658460AF026F8029A434613F0E0FC04468B460398049935
:200DA00002460B4613F0D8FC884681460B46024613F0D2FCD0A20CCA8A460646414648464B
:200DC00013F0CAFCCEA20CCA0AF00DF843464A4613F0C2FCCCA20CCA0AF005F843464A46D7
:200DE00013F0BAFCCAA20CCA09F0FDFF43464A4613F0B2FCC8A20CCA09F0F5FF43464A46F3
:200E000013F0AAFCC6A20CCA09F0EDFF0B4602465146304613F0A0FCDDF81480039A8246F3
:200E2000894600204346414609F0DDFF5B46224613F092FC0B4602464946504609F0D3FFBB
:200E400007460E460020414602460B4613F084FC02910FF26439019099E80C0009F0C3FF24
:200E600033463A4609F0BFFF8A4605994FF0000840465346024613F06FFC0B9105905B4666
:200E800022465146404613F067FC99E80C008B4604465146404609F0A1FF029B019A09F0D8
:200EA0009DFF0B4602463146384609F097FF049B039A13F051FC0B4602465946204609F056
:200EC00092FF83468A4628462BF02EF80E4607460B99059853465A4609F085FFB8A20CCA71
:200EE0008946404613F038FC0B9B059A0C4605464046494609F072FF0B4602465146584637
:200F000009F06CFFB0A20CCA13F026FC0B4602462146284609F067FF009A20320CCA09F098
:200F200062FFABA20CCA0C4605464946404613F013FC8A46834623462A4609F054FF009A11
:200F400010320CCA09F04FFF33463A4609F04BFF404633463A46894609F040FF009A103294
:200F60000CCA09F03BFF70E0A149A942C0F22C82A049B94200F30682BC4219DA002840F338
:200F8000B88095A0044600E2000000000000F87F000000000000F0BF00000000000040430F
:200FA0000000E0418F9803007AB60B00483003000D9A01990CCA504609F010FF88A20CCA7B
:200FC00083468A4613F0C8FB0C460546514658460B46024613F0C0FB83A20CCA88468146F9
:200FE0005146584613F0B8FB02460B46E1A003C809F0F4FE53465A4613F0AEFB02460B46B8
:20100000DEA003C809F0EAFE0B4602464146484613F0A2FBE2A20CCA13F09EFB0B460246C9
:201020002146284609F0DAFEDFA20CCA0C4605465146584613F090FB8A46834623462A46E1
:2010400009F0D1FE00208946804653465A4609F0C5FE0B4602462146284609F0BFFE0646AE
:20106000DDF818A007980D4642465346514609F0B5FE47464B463A4613F06EFB079A8B4611
:20108000044653462946304613F066FB0B4602465946204609F0A7FE04464B468B463A46BC
:2010A0004046514613F058FB8946009482464B4659465246204609F096FECF4A0C4607461F
:2010C000A24231DDCD4924F00040814247DCCC48201857EA00060CD1214638464B46524650
:2010E00009F07CFE024600980B4659461DF08FFC35D80C9C49E1C046EF4E454A287ECA3FB5
:2011000065DBC9934A86CD3F01411DA96074D13F4D268F515555D53FFFAB6FDBB66DDB3F29
:20112000033333333333E33FA01A57EA000640F02B810098B3A20CCA594609F054FE0D46AE
:2011400006464B4652462146384609F047FE0B460246294630461DF09DFCC0F015810E98E7
:2011600024F00041884247DA0C9ABC4EC4F30A504FF48017A0F2FE310CCA002C47FA01F09F
:2011800004EB0001C1F31305C1F30A50A0F2FF3045F4801546FA00F3C0F1140021EA0303ED
:2011A00045FA00F548BF6D425046494609F016FE8946824621E0C04600000000000008402D
:2011C000F5015B14E02F3EBEFD033ADC09C7EE3F000000E009C7EE3F000000000000F07F40
:2011E00044DF5DF80BAE543E000000000000D03F0000F043FFFFEF3F4546009E59464B4665
:201200005246304609F0EFFD0C4640464B46524609F0E4FD0B4602465946304609F0DEFD7E
:201220007AA20CCA13F098FA7AA20CCA07460E464046214613F090FA0B460246314638468C
:2012400009F0D1FD75A20CCA8A4683462146404613F082FA8146884653465A4609F0C3FD4E
:201260000C4600900B46024613F076FA6DA20CCA0E46074613F070FA6CA20CCA09F0B3FD00
:2012800033463A4613F068FA6AA20CCA09F0ABFD33463A4613F060FA68A20CCA09F0A3FD9E
:2012A00033463A4613F058FA66A20CCA09F09BFD33463A4613F050FA024600980B46214693
:2012C00009F08CFD0746009843464A460E46214609F084FD0B4602465146584609F07EFD17
:2012E00081460098884633463A46214613F034FA56A20CCA8A4683463146384609F06EFD70
:201300000B460246514658460FF0BAFCDDF800A00E46074643464A462146504613F01CFA05
:201320000B4602464146484609F05DFD0B4602463146384609F052FD2346524609F04EFD91
:2013400002460D980B4603C809F048FD01EB0553B3F5801FA8BF191C08DA02460B46284636
:2013600043EC102B12F03EF851EC100B0B46024611E0C046555555555555D53F00000000D1
:201380000000E03F002813D532A42EF0D5F92221016094E80C000A99099813F0DDF925E00E
:2013A000FE822B654715F73F000000604715F73F2EF0C2F922210C9A01600A9909980CCA5C
:2013C00013F0CAF9FFF7E5BBBC4204DC002806DD20A0044604E0002848BF1EA400D40C9C6D
:2013E0002EF0AAF92221016094E803000FB041EC100BBDE8F08FC0460000904000CC90406C
:2014000000346F3FFE822B654715973CEF39FAFE422EE63F396CA80C615C20BE0000000002
:20142000432EE63FD0A4BE726937663EF16BD2C541BDBBBE2CDE25AF6A56113F93BDBE16B2
:201440006CC166BF3E5555555555C53F0000000000000040000000000000F07FFFFF0F0093
:201460000EB5009001208DF8080000980190019880788DF809005FE20198122141703FE343
:201480009DF80900009929F02FF88DF8080037E39DF80900009912F03BF98DF808002FE322
:2014A0009DF8090000991AF00BFA8DF8080027E39DF8090000991FF003FB8DF808001FE37C
:2014C0009DF8090000992CF0EFFE8DF8080017E39DF80900009920F0DDFC8DF808000FE3A6
:2014E0009DF8090000992BF04DFB8DF8080007E39DF80900009917F023F98DF80800FFE213
:201500009DF8090000992CF0DCFE8DF80800F7E29DF80900009925F0D8F88DF80800EFE2BE
:201520009DF8090000992BF05EF98DF80800E7E29DF80900009925F0D6FC8DF80800DFE240
:201540009DF80900009929F0E9FC8DF80800D7E29DF8090000992AF05DFC8DF80800CFE228
:201560009DF80900009923F035FC8DF80800C7E29DF80900009919F04FFB8DF80800BFE202
:201580009DF8090000991BF0A7FD8DF80800B7E29DF8090000992DF0C1F88DF80800AFE214
:2015A0009DF8090000992BF0C2FB8DF80800A7E29DF8090000992AF0E9FF8DF808009FE2BF
:2015C0009DF8090000992BF0EBFB8DF8080097E29DF8090000991FF0AFFA8DF808008FE2E0
:2015E0009DF8090000991DF0F9FE8DF8080087E29DF80900009911F039FB8DF808007FE260
:201600009DF8090000990EF00FFA8DF8080077E29DF80900009919F0B1F88DF808006FE2DF
:201620009DF8090000992BF0A8FB8DF8080067E29DF8090000992BF091FA8DF808005FE234
:201640009DF8090000992BF085FB8DF8080057E29DF8090000992CF01AFE8DF808004FE2C9
:201660009DF80900009900F02BFF8DF8080047E29DF80900009902F097FD8DF808003FE2F8
:201680009DF8090000990DF04BFD8DF8080037E29DF80900009901F095FD8DF808002FE2D0
:2016A0009DF80900009904F081FC8DF8080027E29DF80900009924F00FFF8DF808001FE205
:2016C0009DF80900009923F057FB8DF8080017E29DF80900009926F0C7FC8DF808000FE25A
:2016E0009DF8090000990BF001F88DF8080007E29DF80900009928F013FF8DF80800FFE17B
:201700009DF80900009928F0A6FB8DF80800F7E19DF80900009926F0EFFC8DF80800EFE1DF
:201720009DF80900009921F079F98DF80800E7E19DF80900009926F099F88DF80800DFE16F
:201740009DF80900009926F0B3FC8DF80800D7E19DF8090000991FF069FF8DF80800CFE15D
:201760009DF80900009913F03BFD8DF80800C7E19DF80900009918F0A6FD8DF80800BFE1B3
:201780009DF80900009919F09FF98DF80800B7E19DF80900009926F043F88DF80800AFE1A7
:2017A0009DF80900009926F015F88DF80800A7E19DF80900009925F033FA8DF808009FE134
:2017C0009DF8090000992AF081FB8DF8080097E19DF8090000992AF0C3FE8DF808008FE128
:2017E0009DF8090000992AF043FB8DF8080087E19DF8090000992CF03DFD8DF808007FE1EB
:201800009DF80900009929F0A3FB8DF8080077E19DF8090000992AF070FB8DF808006FE15C
:201820009DF80900009926F0EEFD8DF8080067E19DF8090000992CF010FD8DF808005FE16E
:201840009DF80900009918F02FFB8DF8080057E19DF80900009915F0F5FA8DF808004FE172
:201860009DF80900009929F073FC8DF8080047E19DF80900009929F052FC8DF808003FE1A9
:201880009DF80900009924F051FE8DF8080037E19DF80900009928F00BFE8DF808002FE114
:2018A0009DF8090000992AF02FFE8DF8080027E19DF8090000992AF03DFE8DF808001FE1FC
:2018C0009DF8090000992AF059F98DF8080017E19DF80900009929F054FC8DF808000FE1C3
:2018E0009DF8090000992AF0ACFA8DF8080007E19DF8090000992AF0F1FD8DF80800FFE0D1
:201900009DF8090000992AF0CAFA8DF80800F7E09DF8090000992CF093FC8DF80800EFE010
:201920009DF8090000992BF05DFD8DF80800E7E0019812214170E3E001980078432836DCD9
:2019400043283FF425AF28281BDC28283FF4E0AE00283FF495AD801E3FF4DAAD401E3FF437
:201960007FAE401E3FF484AEC01E3FF4E1AD401E3FF486AE401E3FF4B3ADC01F122847D9E9
:20198000D6E72A383FF4D4AE401E3FF4D9AE401E3FF4C6AE0E383FF4DBAE401E3FF4E0AE35
:2019A000401E3FF4E5AE401F3FF4EAAEC0E7CE2819DCCE289CD045383FF4F2AE001F3FF443
:2019C0005BAD401E3FF47CAE401E3FF481AE401E3FF48EAE401E3FF493AE5338242841D9F4
:2019E0002D3895D0A4E7D7383FF45AAF401E3FF45FAF133894D00E383FF422AE401E3FF41F
:201A00000FAE401E3FF414AE401E3FF421AE8FE701A151F82000874621150000F1140000CD
:201A2000D114000079140000911600003119000031190000311900004115000051150000F3
:201A4000311900006115000071150000311900008115000091150000A1160000B11600003C
:201A6000E116000001A151F820008746E1150000D1150000B1150000C1150000F115000019
:201A80000116000011160000A115000001150000C114000091140000A1140000B114000048
:201AA000B11700000118000021180000C1170000D1170000E1170000F11700001118000023
:201AC00031180000411800005118000061180000711800008118000091180000C1180000DE
:201AE000311900003119000031190000D1180000E118000031190000311900000119000078
:201B00009DF808000EBD70472DE9F04F8E4D08352968B83108688D4C0078ADF11C0D20B95E
:201B2000207810B1D1F89404804729F04FFF8127FF23884E8649277000223370864C0860B8
:201B40002778A2811046A369A7702A68197A891E1FFA81F8D2F80011C34EC9893070414588
:201B6000C0F24082E2690832126804F114010A60A189E07D637DA27DA8F1030604F1150B41
:201B80001FFA86F8091D89B220718C46A18103EB02212B686181B83318689BF80160027869
:201BA000C6F3011A002A08BFBAF1020F00F01A82BAF1020F00F316821AB111F0070F00F0FF
:201BC0001182607801F00706B61E022E08BF002800F00882DFF8289332B14A461278862AF0
:201BE00002D1002E40F0FE81091301F0020102294BDA064340D1D86990F88300022838D0FD
:201C0000E069604408300146097805AA17463970A089401CA0812DF0F1FD06464A4610780D
:201C2000862823D1296840310868006810B9D1F80C0580472D689DF9140000212DF01AFE29
:201C4000296C09684877286C006800278777296C9DF9143009683046CB772DF049FF6189B7
:201C6000207901F0100125F069FD02E030462DF03FFF2CF0BBF9B7E14A461178862904D196
:201C8000002029F0E3F8A77860788FB180B9012F00F0A8816089022F03D110F0070F40F043
:201CA000A181032F05D100F00701032901D099E16089010980F09681011301F002010229DE
:201CC00002DA810A80F08E819BF80110C1F381098E11B9F1010F00F08581012E00F08281CB
:201CE000BAF1020F13DA00F00701012918BF03290DD1B9F1000F0AD1002E00F07381124937
:201D00008968AC3109680F78002F00F06B81BD49BAF1020F09D08A5D11F809108918CFB22C
:201D200006B3C1091ED3BF1E0BE072184944127909798918CFB2C10910D259EA060311D048
:201D4000BF1CFFB20EE0C0460C01002013500020E84F0020355E00203C4A002059EA060357
:201D600008BF0227C0F30020391A60718845C0F239812B68A8EB0701091888B2D3F850128D
:201D80002081743080B288470028206100F02A81002174221EF04FFB0020E0706378608976
:201DA0001BB9314A00F0200111702F4963790A784FF0000C3AB333BB00F00701032907D04B
:201DC000012920D12968D1F8D41091F88220D2B168684069007818B12CF0CAFEFE280DD05B
:201DE0002868D0F84C02804740B92868D0F844028047002808BF94F803C002D00420E07094
:201E000084466089637925699BF8018005F1740105F174026960C8F3011A2189AA65002B37
:201E200029812189A8819BF80020A5F85C1002F078004AEA00004CEA000028744FF0FF01BA
:201E4000A9730CBF2079002085F8306085F83A9085F84900A089002FA0EB030080B2A0818F
:201E600000F0BD8002E0C04615500020E169E7803A460918684608311AF0FAFAA0894FEA2F
:201E8000A802C019DFF88081A0812846017C12F0030F02F003076D4601F0400941D0BAF122
:201EA000020F4FF0000301D1C9090BD29DF801209DF8001001EB0221A0F844100DF10205F3
:201EC000A0F842104646B0F84410F2898A4203D04FF6FF728A4222D1032F13D06A78297869
:201EE00001EB022189B24186B289AD1C01208A4214D04FF6FF728A4218BF181C0EE0C0467B
:201F0000185000202069294632302DF02EF82069F61C3146323026F089FD08350346002BDB
:201F200058D09BF8010086111ED02169BAF1020F03D0087CC00903D309E059EA070306D117
:201F40006A782878AD1C00EB0220A1F84200032E05D068782A7802EB00220A8504E02069BB
:201F6000294628302DF001F828498968AC310A68608916788EB1BAF1020F0EDA00F0070280
:201F8000012A18BF032A0CD1226937B9B2F8422046460E36338893421CD100F00702032A3B
:201FA00005D0012A1BD1886A90F88200B8B1D1F89C112069884790B900209BF802709BF801
:201FC00001602569E070C7F3011106F078000843287404E00DF0A1FF20F0DCFB04E00BF05A
:201FE000F5FB01E02CF0BEFB2DF008FCE1690A68002313710968E1612DF07AFD07B0BDE814
:20200000F08FC04678360300F85E00200C0100202DE9FC47D44C0F460546F80B80F00682D3
:202020006078DFF85883B90F80F0AA81B90880F09D81F90A80F00281390B80F0CC8038092D
:2020400007D2F80FC0F0288227F0804720F0CAFA22E22DF0D3FB81462BF096FA002800F01B
:20206000B48008202DF0CEF9002840F0AE8080202DF0C8F9002840F0A88068461AF07AFB6F
:20208000012803D10098002800F09F8094F84102002840F09A8000250126E8B22CF0E0FD54
:2020A00048B1837A3BB1867290F9090006FA00F0C0B228F0DDFC6D1C032DEED3032084F848
:2020C000200004F5CC702DF095FB48462DF010FDD34800252A460168056050F8081CD14942
:2020E00040F8085C04F15C002BF0AEF940460068006B8047A168401A010BA06AC1F1FF32B5
:2021000082422CBF08444FF0FF30A06294F82C0020B12069A16AB1EBC02F25D92BF044FA55
:20212000294600B13146081C1BD0BF4840F6090101804580417B06F00F0221F00F010A433B
:202140004273017B05F00F0321F00F0143EA01020273294641602CF0A5FF418811F4406F34
:20216000FBD084F82C60A56225F0AAFDCE482946056002202AF0EEFE022029F047FA11200A
:2021800015F0DEFF207818B9606848302DF04AFBC648007810B90E2015F0D2FF94F82D0046
:2021A00020B184F82D50052029F030FAC048606284F82050B4F9B000B4F9B210884214BFCE
:2021C000022007201CF0B2FD02E048462DF090FC27F008073AE720B1042029F017FA00205C
:2021E0006070656827F08CFE38B12846ED696FF4807100224FF00073A847E06858B1404606
:202200000068006B8047E2686168801AC860000BC8600026E660A74904F15C0000222BF032
:2022200013F90221D4F89C0084F8201018B104F1DC002DF0FFFA27F4006707E72DF0DEFA46
:2022400006462BF0A1F9D4F894100028894600F08480002900F081809749042504F15C00AE
:20226000002284F820502BF0EFF830462DF040FC04F5CC702DF0BEFA40460068006B804755
:20228000E0604FF0010884F80180284629F0D6F9D9F810006060D9F81000416AC90803D38F
:2022A000036A294600229847404622F09DF8606880F81580606816F001FB6568D5F808A033
:2022C00040F60A02D01F564600F1010C00E01E46736833B119888A4203D0884218BF8C457E
:2022E000F5D100217160727B08F00F0322F00F0213437373D9F80C201288904224D06046CD
:20230000904221D02B8E03B3696305F13002518095F83C0001F00F0320F00F00034385F818
:202320003C3095F83D0008F00F0320F00F00034385F83D307260707B01F00F0520F00F002D
:2023400045EA0001717300E0E16050462CF0AAFE514640462AF0FEFD02E030462DF0C8FB84
:2023600027F4806798E0C046205000200CF084FDD4F89C0008B927F002078DE08C0100107D
:202380004E4A116841F08001116020B1042029F03DF9002060702DF031FA8246D8F85400A1
:2023A000016804208847D0B1287DC0B1A068B0B18146D8F800002E69006B8047A0EB0900CD
:2023C0002861000B2861B04202D280194008286140F6C41181422CBFB0F5967F296150461D
:2023E0002DF086FB27F08CFD80B1EE6928466FF4807100224FF00073B047D4F89400002802
:2024000008BF47F0020701D020F0ECF82846AD6900214FF080630A46A84727F000573BE061
:2024200014100440514B0200F04D00202DF0E6F9D4F8AC6066B306F1280106C90A234FF0F1
:20244000E0450B40154008BF002B21D106F1280191E8000306F1280595E8060006F128036E
:2024600022EA090221EA080183E806002DF040FBB16879B1B9F1000F08BFB8F1000F09D014
:202480003069B6F93010B5684B464246A84701E02DF02EFB27F4804727B104F1DC0039465E
:2024A0002DF0C8F9BDE8FC8700000460FE35030001500100513F010069D50200CC21084024
:2024C00000B5ADF1240D00918DF808000098019001984068002800F021820198806800288C
:2024E00000F01C8201980021417001984068007858B101988068012101709B480078002191
:2025000000B1012101988068417001984068807858B10198806801210171944800780021EA
:2025200000B1012101988068417101984068C078A8B100202BF04CFDADF80C00019880680D
:2025400001218171BDF80C00800B04D3019880680121C17103E0019880680021C17101981F
:2025600040680079002832D00198806801210172019880680C302BF02BFD019989680882E5
:202580007B48007818BB012020F0DCF9019989684861022020F0D6F901998968886104205A
:2025A00020F0D0F901998968C861082020F0CAF9019989680862102020F0C4F90199896816
:2025C0004862202020F0BEF901998968886201984068407948B101988068012180F82C108B
:2025E0009E48019900888968C88501984068807948B101988068012180F83010984801998D
:2026000000888968488601984068C07948B101988068012180F834109248019900888968B4
:20262000C88601984068007A50B101988068012180F838108C4801990078896881F83900A4
:2026400001984068407A50B101988068012180F83A10B14801990078896881F83B000198D0
:202660004068807A50B101988068012180F83C10AD4801990078896881F83D000198406861
:20268000C07A50B101988068012180F83E10A74801990078896881F83F0001984068007B30
:2026A00050B101988068012180F84010A04801990078896881F8410001984068407B50B10C
:2026C00001988068012180F842109A4801990078896881F8430001984068807B50B1019816
:2026E0008068012180F84410934801990078896881F8450001984068C07B00283ED001981D
:202700008068012180F84610112203AB0021812029F069FB01989DF80C10806880F84710C0
:202720000198806890F8470020B39DF80C002CF04BFE01998968886401988068806C48B193
:20274000019880689DF80C20806C0DF10D0127F059F813E001988068002180F847100198DA
:2027600080680021816409E0B65E00201D500020A45E0020019880680021816401984068D7
:20278000007CB0B110202CF01FFE01998968086501988068006D60B101988068012180F8E1
:2027A0004C1001988068036D10220021622029F01AFB01984068407C48B101988068012130
:2027C00080F854105D48019900688968886501984068807C50B101988068012180F85C10D3
:2027E000574801990078896881F85D0001984068C07C58B101988068012180F85E100198B9
:202800005049806808225F3026F0FCFF01984068007D68B101988068012180F867102CF0E8
:20282000B1F90146019880680822683026F0EAFF01984068407DF0B1522003A927F008FC8D
:2028400001988068012180F870109DF80C0068B101988068012180F871100CE0A65E002077
:20286000AA5E0020BC5E0020815E002001988068002180F8711001984068807D48B101988C
:202880008068012180F8721001988068002180F8731001984068C07D68B10198806801215D
:2028A00080F8741028480078002100B101210198806880F8751001984068007E50B1019869
:2028C0008068012180F87610204801990078896881F8770001984068407E68B101988068FC
:2028E000012180F878101A480078002100B101210198806880F8791001984068807E80B1F6
:2029000001988068012180F87A1021F065F90199896881F87B0004E0895E0020019802217D
:202920004170012009B000BDA55E0020905E0020915E0020925E00208F5E0020845E0020F0
:20294000AD5E0020FD5B0020935E0020945E0020DA64002000B5ADF12C0D0293019200910E
:202960008DF80C0000208DF80D00CEE1029800788DF81000009800788DF811000198007807
:202980008DF812009DF810109DF8120088420EDC9DF812109DF81000401A9DF81110814261
:2029A00001DC012000E000208DF80D00F4E19DF810109DF81200401A9DF81110814201DCA6
:2029C000012000E000208DF80D00E5E102980088ADF8100000980088ADF8120001980088AF
:2029E000ADF81400BDF81010BDF8140088420EDCBDF81410BDF81000401ABDF8121081423A
:202A000001DC012000E000208DF80D00C4E1BDF81010BDF81400401ABDF81210814201DC12
:202A2000012000E000208DF80D00B5E10298006804900098006805900198006806900499EE
:202A4000069888420BD806990498401A0599814201D8012000E000208DF80D009CE104998F
:202A60000698401A0599814201D8012000E000208DF80D0090E1029800680490009800686A
:202A800005900198006806900499069888420BD806990498401A0599814201D8012000E052
:202AA00000208DF80D0077E104990698401A0599814201D8012000E000208DF80D006BE13E
:202AC000029890F900008DF81000009890F900008DF81100019890F900008DF812009DF938
:202AE00010109DF9120088420EDC9DF912109DF91000401A9DF91110814201DC012000E04A
:202B000000208DF80D0047E19DF910109DF91200401A9DF91110814201DC012000E00020AB
:202B20008DF80D0038E102980088ADF8100000980088ADF8120001980088ADF81400BDF9AC
:202B40001010BDF9140088420EDCBDF91410BDF91000401ABDF91210814201DC012000E064
:202B600000208DF80D0017E1BDF91010BDF91400401ABDF91210814201DC012000E0002018
:202B80008DF80D0008E10298006804900098006805900198006806900499069888420BDC0C
:202BA00006990498401A0599814201DC012000E000208DF80D00EFE004990698401A05998D
:202BC000814201DC012000E000208DF80D00E3E002980068049000980068059001980068B3
:202BE00006900499069888420BDC06990498401A0599814201DC012000E000208DF80D00CD
:202C0000CAE004990698401A0599814201DC012000E000208DF80D00BEE002980068049050
:202C20000098006805900198006806909DED060ADDED040AF4EEC00AF1EE10FA12DB9DEDEA
:202C4000060ADDED040A70EEC00A9DED050AF4EEC00AF1EE10FA01DB012000E000208DF8B4
:202C60000D0099E09DED040ADDED060A70EEC00A9DED050AF4EEC00AF1EE10FA01DB012009
:202C800000E000208DF80D0086E0029803C804AA82E80300009803C806AA82E803000198A3
:202CA00003C808AA82E8030008AA0CCA04A803C81BF0F0FE10D804A803C808AA0CCA08F053
:202CC0008DF806AA0CCA1BF0E5FE01D8012000E000208DF80D005FE008A803C804AA0CCA31
:202CE00008F07CF806AA0CCA1BF0D4FE01D8012000E000208DF80D004EE000208DF80D0099
:202D00004AE000208DF80D0046E09DF80C0020381A2806D9C038F0D0401EEED0401EECD0A9
:202D2000EFE702A151F820008746C0466D290000CD2900002D2A0000772A0000FB2C000033
:202D4000FB2C0000FB2C0000FB2C0000C12A0000272B0000872B0000D12B0000FB2C0000EC
:202D6000FB2C0000FB2C0000FB2C0000032D0000032D0000032D0000032D0000032D0000EE
:202D8000032D0000032D0000032D0000FB2C00001B2C00008B2C00009DF80D000BB000BD64
:202DA00000B5ADF1140D8DF809108DF80800C0E1B7480078012804D0B5480078022840F090
:202DC000D181B4480078042132222AF0B6FA9DF8090080B1BE4901200870BE4800680028E5
:202DE00000F0D081BB48006822F01AFBB94800680028F7D1C6E100208DF80C00B64902202E
:202E0000087001208DF80500B14900200870B349087820F002000870522003A923F0C0FD09
:202E20002CF088F829F008F9002028F04FFCA9480068002800F09681A648006822F0F0FA7F
:202E4000A44800680028F7D18CE191480078012804D08F480078022840F084819DF8090027
:202E6000D0B10020032121F047F899490420087088480078322204212AF05FFA0820002142
:202E80000CF0F8F9C04900200870824800784FF480511AF077FE75E101208DF805008E49F7
:202EA000072008707B4800784FF480511AF06AFE002025F011FD89490020087075480078D0
:202EC00041F2883202212AF038FA4BE101208DF805009DF8090070B17F4900200870AC48AC
:202EE000AA4900880880A94A832002212AF03CFE062028F0EBFB7649002008706548007822
:202F0000322204212AF019FA7449087820F00200087027E102208DF805009DF8090080B1C1
:202F20006D49002008709A48984900880880974A832002212AF018FE0020032120F0DCFF6A
:202F400002E065490820087061490020087051480078322204212AF0F0F96049087820F039
:202F600004000870FEE003208DF805005A48007810B988490120087087480078002840F05E
:202F800001818648006828F0C1FC002840F0FA80404800784FF4804122F056FF002840F00F
:202FA000F1807F49002008607E49002008607B4826F0DAFA374800784FF480411AF0E2FD70
:202FC0007448007830B1444800780B2802D14249002008706F49002008703D480078062834
:202FE00009D13B49002008702A480078322204212AF0A3F906E06C480078062802D16A49FC
:20300000002008703549087820F008000870A9E000202BF0EDFE65490120087004208DF8EB
:2030200005009DF8090040B12B49002008702B4900200870062028F049FB2549002008705C
:2030400014480078322204212AF077F92349087820F00100087085E000208DF805009DF880
:203060000900C8B1082000210CF004F9042028F02DFB14F0F5F818490D20087014490020B4
:20308000087004480078C82204212AF056F918E0BE5E0020AE4F00202CF0F0F970B10520E0
:2030A0008DF805000D49087840F020000870082000210CF0DFF80A2028F008FB0649022016
:2030C00008700649087820F0100008704AE0C046D84F0020146000207A6300207B6300200B
:2030E00005208DF805009DF80900C8B12E483149007808702C490020087042F208000021C0
:203100000CF0B8F82D49087820F0200008702A490D200870042028F0D9FA1FF0C5FF21E06A
:203120002649087840F02000087023490220087018E09DF80800401E072813D801A151F8DA
:20314000200087464B2E000011300000B12D0000CD2E0000152F0000672F0000593000008C
:20316000E13000001248006860B1134800788DF8040001A80090124800780A210022032391
:203180001FF0D2FA05B000BDD94F0020BC5E0020E85B00201D600020F85F00200460002065
:2031A000086000200C600020DB4F0020A35E002020600020D84F00207A6300207B630020AE
:2031C000AE4F002000B5ADF1140D00918DF808000098019001984068002800F0F3810198B1
:2031E000002141709DF8080027F012FD03900398D0B91C202CF0E8F803900398A0B1039831
:2032000000211C221DF017F99DF8080003990871039823F08FF838B903982CF0CFF80020BC
:2032200003900198D12141700398002800F0CD8101984068007870B101984068407828B112
:203240000399C88840F00100C88004E00399C88820F00100C88001984068807870B10198ED
:203260004068C07828B10399C88840F00200C88004E00399C88820F00200C88001984068C4
:20328000007970B101984068407928B10399C88840F00400C88004E00399C88820F0040075
:2032A000C88001984068807970B101984068C07928B10399C88840F00800C88004E003992C
:2032C000C88820F00800C88001984068007A70B101984068407A28B10399C88840F0100062
:2032E000C88004E00399C88820F01000C88001984068807A70B101984068C07A28B1039902
:20330000C88840F02000C88004E00399C88820F02000C88001984068007B70B1019840685F
:20332000407B28B10399C88840F04000C88004E00399C88820F04000C88001984068807BB1
:2033400070B101984068C07B28B10399886840F00100886004E00399886820F001008860E9
:2033600001984068007C70B101984068407C28B10399886840F00200886004E00399886883
:2033800020F00200886001984068807C70B101984068C07C28B10399886840F004008860D7
:2033A00004E00399886820F00400886001984068807D70B101984068C07D28B1039988685F
:2033C00040F01000886004E00399886820F01000886001984068007E70B101984068407E6E
:2033E00028B10399886840F02000886004E00399886820F02000886001984068807E70B148
:2034000001984068C07E28B10399886840F04000886004E00399886820F04000886001982F
:20342000406890F8220078B10198406890F8230028B10399886840F48060886004E0039944
:20344000886820F4806088600198406890F8260078B10198406890F8270028B10399886833
:2034600040F40050886004E00399886820F4005088600198406890F8280078B101984068C9
:2034800090F8290028B10399886840F48040886004E00399886820F48040886001984068CD
:2034A00090F82A0078B10198406890F82B0028B10399886840F40040886004E0039988680C
:2034C00020F4004088600198406890F8340078B10198406890F8350028B10399886840F4F3
:2034E0008010886004E00399886820F4801088600198406890F8380078B10198406890F865
:20350000390028B10399886840F48000886004E00399886820F4800088600198406890F8BC
:203520003C0078B10198406890F83D0028B10399886840F08070886004E00399886820F033
:20354000807088600198406890F83E0078B10198406890F83F0028B10399886840F0007056
:20356000886004E00399886820F0007088600198406890F8400078B10198406890F841004F
:2035800028B10399886840F00060886004E00399886820F0006088600198406890F842007B
:2035A00098B10198406890F8430028B10399886840F08050886008E00399886820F0805015
:2035C000886002E0019802214170012005B000BD00B5ADF14C0D0A9001208DF839000020DC
:2035E0008DF83A000A98808C032801DA0120E8E10A98974908600A98049000200990002075
:2036000007900020ADF820000A98816A05A815F0CDFA07900A98808CADF820000A98816A91
:203620000798401A81B2BDF82000401AADF820000A98007D2AF020FA0B900B9820B9844933
:20364000002008600220BCE10B98806880B10B98806840880A9900900A989DF814209DF8E1
:203660001B308988007D02F003021FF059FF20B97749002008600320A3E100208DF838006E
:203680000A990A988988007D28F065FC8DF836000B990A9889688088498824F0BDFD0C90A9
:2036A0000C9800285DD09DF8140010F0030F08D19DF814008010400803D29DF81B000B2844
:2036C0004FD09DF83600C00901D3012000E000208DF837009DF83700012842D10A98407E1E
:2036E00000283ED10498407D002835D104984088002831D10A980A99007D8988002225F074
:2037000090FF9DF839008DF835009DF81B008DF834009DF8142000210020D210520800D310
:20372000012000B90121009101200190BDF8180002909DF81A000390049A049804999288B8
:20374000007D0DAB891D21F059FC0A980A99007D8988012225F065FF3D4900200860052086
:203760002FE19DF83800002840F0B1809DF8140010F0030F40F0AB809DF81400801040084C
:2037800003D384208DF83900CBE09DF81B00162800F399809DF81B008B4951F83000002827
:2037A00000F091800A98007D8DF84000BDF82000ADF842000798119083499DF81B0051F863
:2037C000301010A888470990099878B19DF81B007E4951F8300048B19DF81B007B4951F819
:2037E000301004A88847002834D133E00998002830D10498407D28BB0498408810BB8020F9
:203800008DF835009DF81B008DF834009DF8142000210020D210520800D3012000B9012170
:20382000009101200190BDF8180002909DF81A000390049A049804999288007D0DAB891DD8
:2038400021F0DCFB0249002008600120B9E0C04640630020099810B109982BF0CBFC9DF8B0
:203860001B0038B39DF81B00022823D09DF81B0003281FD09DF81B0005281BD09DF81B0033
:20388000062817D09DF81B00082813D09DF81B000C280FD09DF81B0011280BD09DF81B0019
:2038A000132807D09DF81B00152803D09DF81B000B2804D1464900200860002081E00020C6
:2038C0008DF839002DE082208DF8390029E00C98B8B10C988068A0B10C98816804A88847C2
:2038E0008DF839009DF83900FF2805D09DF8380038B19DF8390020B93549002008600020BD
:203900005FE09DF8390001280BD19DF814008010400803D383208DF8390002E081208DF8D5
:2039200039000498407D002832D10498408800282ED19DF814000011400802D39DF839009A
:2039400030B39DF839008DF835009DF81B008DF834009DF8142000210020D210520800D37A
:20396000012000B90121009101200190BDF8180002909DF81A000390049A04980499928876
:20398000007D0DAB891D21F039FB01208DF83A000F49002008609DF8390008B9002010E0A8
:2039A0009DF83900842806D19DF83A0008B1072007E0062005E09DF83A0008B1092000E084
:2039C000082013B000BDC0464427030048270300406300202DE9F04FD64CDFF85C93DFF882
:2039E0005CA3DFF85C83080CADF1140D019180F0DA810846400838BF0020C0F0DF81676856
:203A00002CF072F805462BF09DFC4FF47A764FF6FF726843B0FBF6F081B267B13B887888EE
:203A2000CB1A9BB2984210DDC01A8242C8BF82B2FF68002FF2D14FF6FF70904200F099804C
:203A40002078012129F079FC93E0B879022800F083802CF049F805462BF074FC97F8381053
:203A60004B466843B0FBF6F03880187888426BDD97F83600FF2808D197F83800401C87F8B8
:203A8000380097F8370087F8360097F8356097F839300020012101E0401CC0B283420FDDB5
:203AA00097F8365001FA00F285F0FF052A42F3D03618814097F83600F6B2014387F83610D7
:203AC00097F83400B98F10FB06F2891A89B28842C7BFFF2087F83600011C97F8360052465C
:203AE0001278FF2818BF97F83A0006D140460078642510FB02F212FB05F0788046B9388D5A
:203B00003D7A40F020003885386C87F82E500BE03A8D4FF6DF70104038853D6C87F82E6037
:203B200097F8342012FB06507862F879CDB287F82D00A1687D8411B130468847A8B907F15F
:203B4000100006F01DF810E0B87E97F82A10FA8BE9231FF01AFE05E0387CFF2802D0B869F0
:203B600028F0EDFD384627F089FB2078012117F09DF9019880F0010020E198F8000001280F
:203B800040F00E8100216B4E029198F8330098F813A0D8F81470B16808F11C0408F1020B67
:203BA00008F11009054619B18847002840F0F880607DBBF80010022228F0FCF9061C75D106
:203BC0006078400870D3A078CDF80CA029F054FFBA46071C5DD01C202BF0F6FB061C5AD0A9
:203BE00000211C221CF027FCA078694627F065FA9DF8010002213075304628F01FFEBBF83E
:203C00000000317DB080607DFF22F07102FA01F07074786800783074207DB074E17D11FB6F
:203C200000F0303080B224F066FF0746B76127B9304627F023FB00262DE01A203870002361
:203C40007B701A467A80E0885946B880B81D27F0E5FDE0783A4BF87303F120000088388274
:203C6000608BB88560897882A0783875207B787599F80000B87599F80100F87599F902009B
:203C80003876039A7A76C7F81CA007F13001B96201E00020064627480078002E00F08080D8
:203CA0003572012117F002F9002E79D0307A281AB0F1FF3F04BF01200290307CFF285BD083
:203CC0006078400828BF0025317DF07C4018A84203DCF074FF2088407074B069B17C227D69
:203CE000806A05FB0100216925F08CFD029F317D727C012395FBF1F04843281A03FA00F124
:203D00001143C9B27174EFB1401CFF2202FA00F001437174B769B17C207D05FB0100B88496
:203D2000707CFF280ED1307CB1691AF0BDFFFF20307421E070640020A55E0020A85E002004
:203D4000C85B00202BF0D0FE07462BF0FBFA1D4A1D4B4FF47A717843B0FBF1F01B4F30807C
:203D60001178187811FB00F138786422401C10FB01F010FB02F07080F07C317D2D1A6D1ACA
:203D8000B5F1FF3F04D0717CFF2901D0029F3FB1E075707C2076BBF80000214619F079FA87
:203DA000404628F0CCFC0A48007819F031FF5FEA00087FF4E2AE019880F4004005B0BDE89F
:203DC000F08FC046C85B0020A85E0020A55E0020706400202DE9F0470446B5480078ADF134
:203DE000400D78B92089002807BF30200021102001210BF03FFA00200FA98DF83C005220AC
:203E000022F0CEFD6068217A01AA0EF0EBFB002800F0BC819DF806000228B4BF01270027F7
:203E20009DF808000228A8BF0027BDF80E004FF6F87981450BD009F10101814207D009F183
:203E40000201814203D009F10301814200D100272BF08AFA9DF80710884240F09781002F84
:203E600000F094819DF83500002840F08F81208D9DF80A60678EADF83000ADF8127056B167
:203E800061689DF805209DF8203001202AF0FCFE002840F079819DF80900DFF8FCA20028F8
:203EA00042D19DF82100002650BBBDF80E0024F003FF022808BF01265146BDF80E0009882C
:203EC000814208BF46F002063EB19DF8061000290CBF46F0200646F0400624F0EDFE01288C
:203EE00008BF46F001069DF80600002834D00B9800782AF0E0FF012818BF26F001062BE0BB
:203F00009DF82510002918BFFF2907D15046BDF80E100088884208BF22261DE09DF8240057
:203F20000A9A24F049FF17E0BDF80E10FF2028F075FD002804BF9DF80900082606D09DF8EC
:203F400009002C2640F001008DF8090000F00300012808BF46F011069DF80A0090B98F4858
:203F6000007878B106F0220022280BD00B9A06F04200422840F008811078062803D00728AB
:203F800001D001E10B9AF0094FEAA61824D311780846C01E012811D9001F0FD0C01E0DD061
:203FA000801E0BD05046BDF80E200088904240F0ED80BDF8100026F01CFCE7E05FEA5800BD
:203FC0000AD3032902D150780D2805D001A826F0F5FB012800F0DD80B4F8441050460E303A
:203FE0000088884208D100230093208DB4F8421094F8462012F040FC9DF80A00684D002889
:204000006ED0208DB4F842102BF084F8071C51D19DF8350000283AD195F88C0001285FD16C
:204020000B980078062802D15FEA580058D2BDF8121009F10700884200F0AB805949BDF885
:204040000E00097811B1E98E81421DD0002117F051FF80B18079BDF81020BDF80E1010F08E
:20406000180F0CD0608E00901046238D9DF8212022F046FC8DE0BDF80E10BDF81020104614
:2040800000221EF0A5FE84E021F05CFF81E0042024F031FD0146287800297AD064220A705C
:2040A00001274F70228D4A801AF0FEFD71E0C046A45E00209DF8051060680A18537BFA784E
:2040C000934203D0FB7000207860606840180421401C17F084FD796881425AD8401C7860A2
:2040E00095F84600042818BF092852D19DF81610B00927D20B985FEA58014AD30178042921
:2041000003D19DF82010022917D00078072803D19DF8201004290CD0032805D00C2838D16E
:2041200001A817F09DF934E001A8002122F0C0FB2FE001A81CF0E4FA2BE0002001A913F014
:20414000B3FD26E094F8460094F847708DF8380094F948608DF8397001298DF83A600DD14D
:20416000208DBDF81010884208D1BDF80E0024F0A3FD022804BF00208DF81600E26B01A805
:204180000EA902F02FFD04E0CF2000E0D3202BF051F910B0BDE8F087DA5B0020CF5B0020C4
:2041A000A45B0020935E002000B5ADF1240D00918DF808000098019001984068002800F0AB
:2041C000A78101980021417001984068007878B101984068407818B115490120087002E0CF
:2041E000134900200870124A6320012129F0BCFC01984068007978B101984068407918B153
:204200000C490120087002E00A4900200870094A6D20012129F0A8FC01984068807958B1E1
:2042200001984068C1794FF400500BF023F823E0B65E00201D50002001984068007AD8B152
:2042400001984068008A10F0070F04D001984068C068642810D30198019940684968008ABB
:20426000C96816F019FF002001210BF003F8AB4A3520282129F078FC01984068807C48B161
:2042800001984068A649808A0880A54A4420022129F06AFC01984068807D48B101984068EF
:2042A000A049008B08809F4A4620022129F05CFC01984068807E48B1019840689A49808BB8
:2042C0000880994A8320022129F04EFC01984068807F48B1019840689449C07F0870934A5F
:2042E0002920012129F040FC0198406890F8200050B1019840688E4990F8210008708C4A05
:204300002B20012129F030FC0198406890F8220050B101984068874990F823000870854AFC
:204320004320012129F020FC0198406890F8240050B101984068804990F8250008707E4ADE
:204340002E20012129F010FC0198406890F8260050B101984068794990F827000870774AED
:204360002F20012129F000FC0198406890F8280050B101984068724990F829000870704AE6
:204380003020012129F0F0FB0198406890F82A0050B1019840686B4990F82B000870694AE0
:2043A0002C20012129F0E0FB0198406890F82C00D0B10198406890F82D008DF80C009DF809
:2043C0000C00102802DD10208DF80C00019840689DF80C20016B0DF10D0025F013FA8120BD
:2043E000112103AA29F0C0FB0198406890F8340088B10198406890F8350003900398102870
:2044000001DD1020039001984068BDF80C10826B622029F0A9FB0198406890F83C0048B1BF
:20442000019840684849006C0860474A8420042129F09AFB0198406890F8440050B1019827
:204440004068424990F845000870404A4B20012129F08AFB0198406890F8460058B101987E
:2044600041683B480822473125F0CCF9384A4720082129F079FB0198406890F84F0030B1FC
:204480000198426808210120503229F06DFB0198406890F8580048B10198406890F8590050
:2044A0008DF80C0003A9522022F07AFA0198406890F85E0050B101984068264990F85F0008
:2044C0000870244A3320012129F04EFB0198406890F85C0060B1019840681F4990F85D005B
:2044E00008701D4A3220012129F03EFB22F012FF0198406890F8600068B101984068174911
:2045000090F861000870154815490078087002E0019802214170012009B000BD845C0020A9
:20452000A65E0020AA5E0020BC5E0020815E0020895E0020A55E0020905E0020915E0020AF
:20454000925E00208F5E0020845E0020AD5E0020CC650020945E0020935E0020DA6400203F
:204560002C5C002000B5ADF1140D0090009800788DF80A008E499DF80A00085CADF8080069
:2045800000208DF80B00BDF80800002800F0B1819DF80A000D281FD1AD488068D0F82824AF
:2045A00002A953209047BDF808004FF6FE71814208D0BDF808004FF6FF71814202D000985B
:2045C000008930B9A2488068D0F85413684688478FE10098019069E09DF80A0005280DD15F
:2045E00000988078012800F084810098017CBDF8080040182430ADF8080023E09DF80A0040
:20460000072813D10098807828B9BDF808001B30ADF8080016E00098817D880000EB411011
:20462000BDF808100918ADF808100BE09DF80A000C2807D100984068C08A400A02D301206F
:204640008DF80B00BDF8080024F055FA019008BB9DF80A000C2840F04C810098406800281E
:2046600000F047812BF0CAF8039079488068D0F854130098001D8847BDF8080024F03BFAB0
:20468000019018B903982BF033FA32E103982BF02FFAFFE79DF80A00072807D09DF80A00B9
:2046A00043490A5C0198009925F0ACF89DF80A0005281BD10198039003990398496824220B
:2046C000183025F09FF803980399183048600398039A03994068127C4969243025F092F810
:2046E0000398039940682430486176E09DF80A00072872D101980390009803990078087027
:204700000098039940784870009803998078887000980399C078C870009800998079497941
:2047200000F0FF0001F0FF0101EB00200099C97901F0FF0100EB01400099097A01F0FF0188
:2047400000EB01600399486003988078A8B903981B2101720099039889691B22103025F0D3
:2047600051F8039803991030C860009880692AF025FE0098002181612FE000980399807DB8
:2047800008720398007A002814DD0098806988B1039A00990398137A896910309A0002EBA0
:2047A000431225F02FF8039803991030C86007E09C34030003980021C16003980021017203
:2047C0000098806948B1009880692AF0F7FD0098002181610098002181754748006828B1B6
:2047E0004548016801988847002874D19DF80A000D284FD100984068007800F003008DF8CA
:204800000C00009840680078C0F383008DF80D0000984068407800F0C0008DF80E009DF83C
:204820000C0001280DDC35489DF80D100078884207D19DF80E0020B9009890F8300002281B
:2048400008D003488068D0F854136846884750E00C01002001982830049004980499C07F47
:204860001E311CF0D9FC0098408E4FF6FF71814228D1009840688079012823DD019821F025
:20488000D7FD002835D01F488068D0F85413684688472EE09DF80A000C2813D10098407807
:2048A0001A280FD0019803900398406850B103984068C08A400805D303980399007C0F31C7
:2048C0001CF0AAFC9DF80B00012804D00C48019900781AF0E9F99DF80A000C2809D10098F2
:2048E000406830B107488068D0F854130098001D884705B000BDC046E0650020D65B002017
:20490000A45B00200C01002000B5ADF13C0D049000208DF82C0000200590002006900020BF
:204920000890049880690990099909980978407801F0FF0100F0FF0001EB0021ADF828107B
:2049400009980999C078897800F0FF0001F0FF0101EB0021ADF82A100998001D0990BDF803
:20496000280024F0A9F9012813D1BDF82800009000200190002002900498007C0390049835
:20498000049A417C8023921C48F2060013F058FD41E1BDF8280024F08FF9C8B99F48BDF81B
:2049A00028100088884213D0BDF82800009000200190002002900498007C03900498049AD5
:2049C000417C8023921C48F2060013F039FD22E1099911F8010B09918DF82D0070B19DF894
:2049E0002D0040002AF0F0FC059038B19DF82D000999059A21F04EFB099002E000208DF849
:204A00002D00099911F8010B09918DF82E0070B19DF82E0040002AF0D7FC069038B19DF840
:204A20002E000999069A21F035FB099002E000208DF82E007A48006807900798002800F0FF
:204A4000B180079840680078002800F0A4800798807B4008C0F09F800798806858B107984A
:204A6000826807984068017801209047089001208DF82F0006E0079840688068089000205A
:204A80008DF82F00089800287DD00899BDF82A004988884205D0BDF82A004FF6FF71814206
:204AA00071D160480C900899CA7908999DF82D008B6805991DF0A9FB50B908990A7B089917
:204AC0009DF82E000B6906991DF09FFB00285AD09DF82D109DF82E004018142101EB4001B8
:204AE0008DF838109DF8380024F005F80D900D9800283FD00D98D221017004980D9940887F
:204B000048809DF82D000D9908719DF82E000D9908739DF82D0060B10D980D9914308860BE
:204B20000D989DF82D104A008068059924F06AFE02E00D98002181609DF82E0080B19DF8A0
:204B40002D100D9800EB41000D99143008610D989DF82E104A000069069924F053FE02E0E3
:204B60000D98002101610798406840680D9900781AF09AF89DF82C00411C8DF82C100899E4
:204B80000C9A09788154089828B19DF82F0010B108982AF013FC07980068079007980028ED
:204BA0007FF44FAF9DF82C00A8B11C48008800909DF82C0001901B4802900498007C0390FC
:204BC0000498049A417C0023921C48F2060013F037FCB0B915E00498007B90B90F480088FA
:204BE0000090002001900F4802900498007C03900498049A417C0023921C48F2060013F0D5
:204C00001FFC059810B105982AF0D8FB069810B106982AF0D3FB0FB000BDC0465C4F00205F
:204C2000E04F00206848002000B5ADF13C0D079000208DF830000798807E22F003FC0B9004
:204C40000B9808B9022078E10798C06908900898007808B9022070E1089800788000401CD5
:204C60002AF0B2FB0A900A9808B9102065E12AF0ABF81EF081FA8DF830009DF8300020B169
:204C80000A982AF09BFB102057E100208DF8330000208DF8320000208DF83100FEE09DF862
:204CA00031100801A0EB410008990918491C099100208DF8300007980799099A807E898956
:204CC000B2F8012018F02AF98DF834000799099A07988989B2F80120807E04AB17F0F5FFBE
:204CE0008DF835009DF83400FF2802D09DF8350018B987208DF83000A9E009980078002877
:204D000040F0A28009999DF81600C978884240F097809DF81700C008C0F08E8009988088C7
:204D20004FF6FF71814249D10998C088002845D101208DF8330082489DF834209DF8343035
:204D40000068162101FB02007D4940890968162202FB0311C8807A489DF8342000689DF87D
:204D60003430162101FB0200754980890968162202FB0311088172489DF83420006816214E
:204D800001FB020000210E3004221BF054FB6C489DF834200068162101FB020068499DF8B6
:204DA0003430096816220E3002FB03110422123124F028FD00208DF8300048E001208DF852
:204DC00033005F489DF834200068162101FB020109988088C8805A489DF834200068162157
:204DE00001FB02010998C08808810998C07815F0BBF9E8B152489DF834200068162101FBF9
:204E0000020000210E3004221BF015FB0998C0780AF068FD02464A489DF834300068162146
:204E200001FB03000999D1F80A100E3024F0EAFC00208DF830000AE08C208DF8300006E0B0
:204E40008D208DF8300002E000208DF830009DF83000F0B19DF832100A9800EB81009DF859
:204E6000301041700A989DF8321000EB81000999097881700A989DF8321000EB81000999C1
:204E8000B1F80110A0F803109DF83200401C8DF832009DF83100401C8DF8310008989DF8C6
:204EA0003110007888423FF7FAAE9DF8330001281CD12448224A00781268162111FB00F0B6
:204EC00081B2562028F041FE8DF830009DF8300050B91C481A4A00781268162111FB00F062
:204EE00081B2562028F040FE0DF060FA9DF832000A9908700A98007828B90A98002141700B
:204F00000A980121017001200090012001900798807A0290002003900A9B079A0798079996
:204F20009289807E0E310AF04DFA0A982AF046FA27F088FD25F018F900200FB000BDC04678
:204F4000DC4F00200850002000B5ADF1540D0B9000200C9000208DF84E000B98806900788C
:204F60008DF84F0000210DF14D029C201CF02AFDB148007818B1B048007801280DD100202F
:204F8000042126F053FA8DF84E009DF84D009DF84E1040188DF84D0002E001208DF84D00E2
:204FA0009DF84F009DF84D10884280F227819DF84F109DF84D00401A8DF84C009DF84C0055
:204FC000022802DD02208DF84C009DF84C101A2010FB01F000B22AF0F7F90C900C9800288A
:204FE00000F00F8100208DF84A000C980D909DF84F008DF84B00A1E09DF84E009DF84B10F9
:20500000884240F384809DF84B00411C8DF84B1026F024FA0E900E98002800F08A80874809
:205020000D99008808800D988549801C29F09DFF0E980D99008848820D980221C1750D98B5
:20504000FF2101760E980D99807A487600208DF83C000E980088ADF83E000FA81BF060FAA7
:20506000012805D10D9810A90A3029F07EFF05E00D98FF2108220A301BF0DDF90E980079F5
:20508000C0B90E98008830B90D98002101750D980021017607E00D980121017569480D998C
:2050A0000078401E08760D98022141750D980021817528E063480D990078401C08760E9811
:2050C000007903280EDA0D98022101750E980079012803D10D980021417511E00D980121B6
:2050E00041750DE00D98012101750E980079032803D10D980021417502E00D9801214175D7
:205100000D98012181750D981A300D9011E09DF84E009DF84F10884203DB00208DF84B00E6
:2051200065E09DF84E109DF84F00401A8DF84B005DE09DF84A00401C8DF84A009DF84C0001
:205140009DF84A1088423FF757AF50E09DF84B10481C04AA8DF84B0087201CF033FCBDF8C1
:205160001A000D9908800D983549801C29F0FDFE0D980DF112010A3029F0F7FEBDF8100051
:205180000D9948822C48007818B12B480078012809D10D98022141750D98022181750D981B
:2051A000FF2101760AE00D98012141750D980021817524480D990078401E08760D98022107
:2051C000C1750D999DF8220048760D98408A18B90D980021017502E00D98012101750D983E
:2051E0001A300D909DF84A00401C8DF84A009DF84C009DF84A108842A8DC02E000208DF819
:205200004C009DF84F0000909DF84C0001900C980B990290002003900B989DF84D30407C5E
:205220000022891C08F090FB0C9810B10C982AF0C5F815B000BDC046BE5E0020E85B00201D
:20524000FD5B0020FC5B002000B5ADF12C0D8DF824308DF8232003918DF8220000208DF852
:2052600027000398007A012803D00398007A032806D19DF8220018B19DF82200FF2801D1AF
:2052800000203BE10398007A032804D19DF8230008B9002032E1039905A80A2224F0B2FADC
:2052A0009DF823008DF81E00002004901CF062F803981AF052F8ADF802009DF822008DF8A7
:2052C00000000398007A012806D101208DF8050000208DF8040006E000208DF805009DF840
:2052E00023008DF80400BDF802004FF6FE71814200F0FD8000208DF8260039E09DF82610B8
:205300000801A0EB41007E49085C9DF80010884229D19DF826100801A0EB41007949085C5E
:205320009DF8051088421ED19DF826100801A0EB41007549085ABDF80210884213D19DF840
:2053400026100801A0EB41007049085C9DF80410884208D19DF826100801A0EB4100684988
:20536000401804900AE09DF82600401C8DF8260067489DF8261000788842BFDC049800287A
:205380004FD000208DF8250044E09DF825000C9931F81010049822F04BFB002835D19DF8A1
:2053A00025000C9931F81010049823F045FE10B90020049029E0574802889DF826009DF8E9
:2053C00026100301A3EB40034D481B18022019F041FF9DF825000C9931F81000ADF8200032
:2053E0004D48006818B14C48016805A888479DF825100C9A9DF8220032F8111001230022B6
:205400001EF022FB01208DF827009DF82500401C8DF825009DF824009DF825108842B4DCF7
:2054200065E00AA81EF042FB0490049800285ED09DF80000049908709DF80500049948700B
:20544000BDF80200049948809DF804000499087132489DF824100078884203DA2F48007830
:205460008DF8240000208DF8250020E09DF825000C9931F81000ADF820002748006818B1BC
:205480002548016805A888479DF825100C9A9DF8220032F81110012300221EF0D5FA012004
:2054A0008DF827009DF82500401C8DF825009DF824009DF825108842D8DC9DF82400049929
:2054C00048719DF8241004984A000C99801D24F099F9104802889DF828109DF8280003010C
:2054E000A3EB400306481B18022019F0B3FE9DF82700012801D123F0ABF904980BB000BDFC
:20550000F8470020F9470020FA470020FC470020CE300300D0300300C8640020CF300300B6
:2055200000B5ADF1340D01918DF80C000198C0082AD31BE002F0F4FF22E0012001211DF024
:205540004FFE1DE028F0A7FA04200121FDF728FC16E0984900200870974900200870974824
:2055600000783222042127F0E8FE09E0924800780028DFD0401EE0D0C01EE3D0801EE8D036
:20558000019880F0040013E10198000C30D324E004980078D32803D1049825F096F919E042
:2055A0008548049900780978884203D104980AF0C1FF0FE0049800780A280BD1804804991E
:2055C000007808717F48006820B17E4801680498801C8847049827F0B2F87848007818F007
:2055E00017FB00280490D3D1019880F40040DFE00198400B05D31FF03FFF019880F4805047
:20560000D6E00198000A05D318F016FF019880F08000CDE00198800819D36B4800780128A5
:2056200003D06948007802280DD104A8002108221AF001FF04A822F0D7FA20B15F480078E6
:20564000022115F033FC019880F00200B0E00198000B03D3019880F40060A9E00198C00986
:205660002DD317F0A5FC02900298F0B157490878401E087055480078002816DD4F48007880
:205680004FF4804120F0E0FB40B95148006826F03DF918B90298007829F07DF9474800785C
:2056A000402143F6982227F048FE4848007810B90B2028F0E5FB019880F0400078E001980B
:2056C000800B6BD30020079042480068079000208DF82000079800284AD0002009900798C3
:2056E0004068099007984068007820B1079840680078F12803DB07980068079035E00998CF
:2057000000780321002204AB17F0DFFA50B306980A900A980088002807DD0A990888401E3A
:20572000088001208DF820001CE022490020087003208DF82D0000208DF82C000BA8009033
:205740001E480078002203230A211CF0EDFF1949002008702048006820B11F4801680998F4
:205760000078884707980068079007980028B4D19DF8200040B1114800784FF400514FF4AA
:205780007A7227F0DAFD05E00C4800784FF4005118F0F8F9019880F4005009E00198C00B47
:2057A00005D30BF0D5FC019880F4804000E000200DB000BD7A630020D84F0020AE4F00209D
:2057C0007B63002020600020BE5E0020F85F002004600020FC5F0020C46400202DE9F04FDC
:2057E000A94C20780D46290CADF13C0D80F02281A90B80F01381690880F00281A90938D2C2
:205800009D480078A9081BD2A80A04D318F076FC85F400702CE1280904D30120E07085F0A6
:20582000080025E1E80A09D318F096FBB4F84400012111F08BF885F4806019E1002017E1F2
:2058400040B9618F012025F061F92078012118F099F90BE0684629F05FFF29F07FFD874906
:20586000874F0A783B7869461FF0A6FC85F00200FEE0202120F0E8FA20B9E068002808BF25
:20588000012615D02AF030F9064629F05BFD4FF47A717043B0FBF1F1E068002808BF002037
:2058A00004D088428CBF4FF0FF30081A46086BD000200421024626F08DFD071C64D04FF023
:2058C000000B4FF0FF094FF0060A384604215A4626F080FD0E903889864204D8801B83B27E
:2058E0003B8113B14DE0A7F808B0BB7B012B02D17889C0083ED3002B39D08DF800908DF8C7
:2059000001904FF0FF308DF802003968086AC97F01AA0CF067FED846012808BF4FF0010844
:205920005FEA08001DD0788A40F08000ADF83200B87B8DF834007889000908D3BDF83200E8
:2059400040F48070ADF83200387B8DF836007B6913B1187BADF8140069465A4601A801F001
:2059600041F987F80DA0387B1AF0BAF909E00120787306E087F80DA03868407BB72122F005
:205980002BFB0E9F002FA0D128F0D0F800200121024626F01FFD18B12078202115F086FAD1
:2059A00000200421024626F015FDB6B278B107890421002226F00EFDE8B9BE42AEBF002774
:2059C000BF1BBFB2207827B9202115F06FFA00200DE07A00202127F0B0FC2AF085F80646E7
:2059E00029F0B0FC4FF47A717043B0FBF1F0E06085F020003CE00189B942D8BF0F1CD7E77F
:205A000094F84C000F2806D194F8460018B1012801D023F09DFE85F0010029E021F0B4FE1B
:205A2000071C04D0FEF7D6F9384626F088FE85F400501DE018F0ECF8071C17D01149083142
:205A40000A78FF2A0FD03C780B460020944207D0401CC0B2C200D1189A5CFF2AF6D102E0A9
:205A6000496838468847384626F069FE85F400400FB0BDE8F08FC0463B5C00209F5E0020B7
:205A8000A05E0020AC2E0300A45B00202DE9F04FDFF84C9204460D460020ADF1440D0146EF
:205AA0001F460D9016460E9183460F91D9F808A0CDF840B019F014FD262803D019F010FD01
:205AC000252825D1308843F6070181420ED040F60201814206D0B0F5C15F19D1F07B0228D3
:205AE00016DD43E0F07B022812DD3FE096F8240002280DDD307C0F2838D13169C1F31421B8
:205B0000B1F5803F04D00F2830D1B1F5A02F2DD1002D2BD056B328784FF0010808FA00F096
:205B20001AEA000F22D03046594629F075FE65606C4DA660A86980B110A800900DA90EAA43
:205B40000FAB30460EF00CFD0E980B214FF6FF72502326F0EBFEFF2808D029F04FFE8246E7
:205B60002878022804DB504629F0C2FF5C46B2E000286DD108F060F85B495C4E086840F034
:205B80000200086009A8C9F8006029F0A3FA584E5849707809AA0B9005F1DC0020F050FA6A
:205BA000554905F58C7009AA20F04AFA09A829F051FA192109AB3078504A0A9005F15C0019
:205BC00023F0DAFB4E4A05F178001A2109AB23F0D3FB4C495A4605F5AA70134623F00CF84E
:205BE00049495A4605F5CC70134623F005F847480068C0F3814030B1454A05F130000421AE
:205C00005B4626F0A7FEB078012802D10E2013F0E5F805F19C0028F0A1FF05F1940028F00A
:205C20009DFF594685F82C1085F82010072085F84002A962A960374B197085F82D100526D9
:205C4000E960354A2E6104206A6227F083F9287805EB8001401CC1F8B440C0B228705046B0
:205C600029F046FF1FB901A828F0C8FF01AF38684FF4FA76E6602060B86941466062388A71
:205C80006175E082F869E062786800280CBF40F6C410594620612148E06120622175A06169
:205CA000F86800B1E061786900B12062B86800B1A061C82204F1300059461AF0BCFB04F148
:205CC0004800594626F010FA15495A4604F1B000134622F091FF204611B0BDE8F08FC046CE
:205CE000CC2108402050002000200940110000E0FC350300BDE302009D750100514B0200FE
:205D0000692D020049D502004DDD0200B44F0050E57102003B4A00200150010077C00000C6
:205D20009BF702002DE9F04F984CDFF870A2DFF8789220788B465FEA1B41ADF1140D80F08F
:205D40008A80934909785FEA9B0204D30120E0708BF0020017E1012923D15FEADB0120D303
:205D60008C490F7800259FB18B494FF6FE722C46891F31F8063F9A4208D08B885B1E9EB2B1
:205D8000002E8E8006BF0A808C7001257F1EF0D125B104214FF4FA7227F0CFFA8BF00400EF
:205DA000F1E05FEA1B1038BF0020C0F0EC804D460E35E76928780026B04600091FD229F076
:205DC00093FE054629F0BEFA4FF47A7152466843B0FBF1F315787249206A0A88181A8242BC
:205DE00036D8B0FBF2F189B28D42A8BFCDB2B0FBF2F15143401A80B21B1A236200E00125A9
:205E0000EFB1C146F878A8420ADD401BC0B2F87040B108F101061FFA86F83E467F680CE086
:205E200087F803907868002E82460CBFC4F81CA07060384629F0C2FA5746002FE2D12078FD
:205E4000B8F1000F04D100212162082117F09AFE8BF0080097E017F0DBFE071C00F091804B
:205E6000B87FC0B9788CE569132815D1B7F80280281C11D000260188884508D14568002E79
:205E80000CBFE561756029F099FA284601E0064640680028EFD1E569B87A97F831102E4681
:205EA000022852D1788856B13288904204D1B2789AF80030914246D07668002EF4D18046C1
:205EC0000E46002D08BF002004D0012015B16B68002B34D133490988814236DD082029F078
:205EE00073FA5146097800282FD0A0F800808670C17000234360E66986B9E0614D46A87B6C
:205F0000000910D229F0F0FD064629F01BFA4FF47A717043B0FBF1F0206201E068604D46EB
:205F2000A87B000911D3207808211FF08DFF60B91B4920780A88082127F0EEF905E0401CE6
:205F40001D4680B2C2E7F37018E03878012805D0022813D138461CF0A3FA0FE0387E009090
:205F6000F87C019078690290787E0390BA89B91C07F1100307F11C0005F0FEFD384626F065
:205F8000DEFB8BF4004005B0BDE8F08F20610020A45E00206F640020F8420020B25E002050
:205FA000B05E0020B45E0020C45B002000B5ADF11C0D00918DF8080000980190019840683E
:205FC000002800F02D8101984068007824F03CF918B10198D021417025E124F051F99349B5
:205FE0000978814203DC0198D12141701BE100208DF810000198002141709DF8080024F075
:2060000007FE0390039810B10398007B88B11C2029F0DAF90390039858B101208DF8100028
:20602000039800211C221AF006FA9DF80800039908710398002800F0F680019840680399A4
:2060400000780873019840680399007A0876784903980161142029F0B7F9039948610398DD
:206060004069002800F0818003984069002114221AF0E1F9019840684068817903984069B8
:20608000807961F30300039949698871019840680399406849698088888001984068039945
:2060A000406849690078087001984068039940684969408848800198406803994068496998
:2060C000C079C87101984068039940684969007B087303984069C079400029F075F9039941
:2060E00049698860039840698068C0B1002006900FE00198406840680699806830F811100B
:2061000003984069069A806820F812100698401C0690039840690699C0798842E9DC0398A3
:206120004069007B400029F04FF9039949690861039840690069C0B1002006900FE0019887
:20614000406840680699006930F8111003984069069A006920F812100698401C06900398EC
:2061600040690699007B8842E9DC03980C3026F0A5FD8DF814009DF81400022803D09DF86A
:206180001400B82809D10398007B19F0DDFF03980C3026F093FD8DF814009DF8140060B95E
:2061A0009DF8100001282FD1039820F0C3F800282AD1039828F0A6FF26E09DF8100001285C
:2061C00003D1039828F09EFF1EE003984069A8B103984069806820B103984069806829F0BE
:2061E000EDF803984069006920B103984069006929F0E4F80398406929F0E0F803980021A9
:2062000010220C301AF017F99DF81400022803D09DF81400B82802D10198D021417002E0D7
:20622000019802214170012007B000BDD86400207A4E002000B5ADF1140D009001208DF86E
:20624000080000980190C4E0009803900398806818B10398806829F0B1F8009826F06FFA96
:2062600024E1009803900398406918B10398406929F0A4F8009826F062FA17E100980390BB
:206280000398406918B10398406929F097F8009826F055FA0AE1009803900398406918B1E5
:2062A0000398406929F08AF80398C06918B10398C06929F083F8009826F041FAF6E00098C3
:2062C00003900398C06818B10398C06829F076F8009826F034FAE9E0009803900398C068C2
:2062E00018B10398C06829F069F8009826F027FADCE0009803900398C06818B10398C06893
:2063000029F05CF8009826F01AFACFE0009803900398C06818B10398C06829F04FF800982D
:2063200026F00DFAC2E0009803900398C06818B10398C06829F042F8009826F000FAB5E094
:20634000009803900398C06818B10398C06829F035F8009826F0F3F9A8E000980390039895
:20636000C06818B10398C06829F028F8009826F0E6F99BE0009803900398406918B1039855
:20638000406929F01BF8009826F0D9F98EE0009803900398C06A18B10398C06A29F00EF89D
:2063A000009826F0CCF981E0009803900398806818B10398806829F001F8009826F0BFF997
:2063C00074E0009826F0BBF970E000208DF808006CE001980078C72818DCC728F1D0922860
:2063E0000BDC9228D3D0801FDED04238E9D018381C281CD93138E4D0E7E79538E1D0401E89
:20640000DFD02F38DDD0401EDBD0DEE7C838D8D0401ED6D0401ED4D0401ED2D01538D0D050
:20642000801ECED0401ECCD00838CAD0CDE702A151F820008746C046636200007D62000015
:20644000C3630000C363000097620000BF620000D9620000CB630000F3620000CB630000EA
:20646000C3630000C3630000C3630000C36300000D63000027630000416300005B63000028
:20648000C3630000C3630000C36300007563000049620000C3630000CB630000CB63000085
:2064A000C3630000CB630000C36300009DF8080005B000BD2DE9F04F06460020ADF17C0D6B
:2064C0001B9190A4009094E80C0058EC107B4146384618F0DFFA0FF23C290CD98BA494E819
:2064E0000C00384618F093FA05D999E80C0018F08EFA02D109E094E8800148EC107B68465C
:206500001DF038FB0098401E0090307BB5680024A0F14101B5F1FF3F1D9108BF0124A24690
:2065200041280CBF6DA072A01E9030208DF8080099E80C004146384618F069FA38BF88F011
:20654000004899E80C00414618F061FA0DD048EC107B01A81DF00EFB019848EC107BC0F118
:2065600001000CF03FFF58EC107B4146384621F0E7FD83460DF109011FF00AFE0446584647
:2065800025F0D2FC0B4602464146384604F026FC0FF2881B0DEB04021C940746BAF1000F0B
:2065A00002F1090458D16D1C15D09BE80C000EF0D3F88846814621F0C3FD1E99095C04F86E
:2065C000011B25F0B1FC0B4602464146484604F005FC6D1EE9D11D9F641E002F14BF44A5CC
:2065E0003EA52178284628F002FA401B082838DB27464FF000097D1E1D98002814BF0FF2FE
:20660000F0080FF2D8082978404628F0F0F9A0EB0800401C1028B4BF18F800103021102836
:2066200029701EDB6D1E07F8019DE5E79BE80C0038460EF091F80D46074621F081FD1E995A
:20664000095C04F8011B25F06FFC0B4602462946384604F0C3FB074699E80C0018F0D7F953
:20666000E4D10025307B2570412814BF702150211B9A00981FF0D7FFB068B0F1FF3F05D1C3
:206680000DF1090029F038FA401EB0601C991B9B0DF109040246204622F047FF3168B0680D
:2066A0002A4601F00801084318BF01221C991B9B20461BF0E1FD307B412814BF7821582178
:2066C0001B980268531E03601170016830274A1E02601FB00F70BDE8F08FC0463031323380
:2066E00034353637383941424344454600C046C03031323334353637383961626364656696
:2067000000C046C0000000000000F07F000000000000F0FF00000000000000000000000055
:206720000000304080B502AFADF1480DADF83A30ADF838200A9109900A9808B902201AE150
:206740000998007A8DF83200387A000914D30998007A022801D002200DE128F00BFE0999DC
:206760000988884208D0099800880121032218F077FF08B1CD20FEE00998007A022803D05C
:206780000998007A0F280ED10998008822F094FA18B109980F21017212E00998007A0F28AE
:2067A0000ED10220E7E00998007A032808D00998007A012804D00998007A08B10220DAE02B
:2067C0000998007A8DF808000998007A032804D10999684628F0C9FB03E009980088ADF819
:2067E0000000387A800804D34FF6FF70ADF810001FE00020ADF810000A9823F061FC0B909E
:2068000078B10A980B9A0178022090471090109878B110980088ADF81000109828F0CEFDB5
:2068200007E00A98806820B10A9880684088ADF810000020ADF81800387A40090DD39DF8C2
:2068400008000F2809D09DF80800012805D0BDF8180040F00400ADF81800387A000A05D333
:20686000BDF8180040F01000ADF81800387AC00909D3BDF8180040F00100ADF8180001201B
:206880008DF8310002E000208DF83100387AC00805D3BDF8180040F04000ADF8180000201E
:2068A0008DF83000387A800903D304208DF81B0003E0324800788DF81B00786800788DF8FC
:2068C0001A000A9800788DF80A000998407A8DF80B00BDF83800ADF80E00BDF83A00ADF8D6
:2068E000120038680590387B8DF81C000A98007823F0CAFB0D900D9830B10D98006918B111
:206900000D980169684688470CA824F0EFFBBDF83A1088420DDA1A48006830B11848016815
:20692000684688478DF83C0008E002208DF83C0004E0684603F024F98DF83C009DF808004E
